S00F0000446F6F6D3632312E73726563ED
S3158002000027BDFFC8AFBF0034AFBE003003A0F021CA
S31580020010A3C00020A3C0002124020005AFC2002491
S3158002002024020009AFC20028AFC0002C24020003BC
S31580020030AFC200102402000CAFC200142402000FCB
S31580020040A3C2002024020002A3C2002127C40024E6
S3158002005027C5002827C3002C27C200200060302134
S31580020060004038210C00805A0000000027C200247C
S31580020070AFC2001827C20028AFC2001C8FC4001866
S315800200808FC5001C0C008046000000008FC200183D
S315800200908C420000AFC200248FC2001C8C4200003A
S315800200A0AFC2002808008032000000008FC3002CF7
S315800200B08FC2002800621023AFC2002C8FC2002894
S315800200C02442FFFFAFC200288FC200280441FFF7F7
S315800200D0000000008FC2002828420003104000035F
S315800200E00000000024020030AFC200288FC3002423
S315800200F08FC20028006218218FC2002C0062102154
S3158002010003C0E8218FBF00348FBE003027BD003880
S3158002011003E000080000000027BDFFF0AFBE000C20
S3158002012003A0F021AFC40010AFC500148FC2001027
S315800201308C420000AFC200008FC200148C430000C4
S315800201408FC20010AC4300008FC200148FC3000020
S31580020150AC43000003C0E8218FBE000C27BD00100F
S3158002016003E000080000000027BDFFD8AFBF0024CF
S31580020170AFBE002003A0F021AFC40028AFC5002C7B
S31580020180AFC60030AFC700348FC2003424420001AC
S31580020190AFC200348FC2003490420000A3C2001066
S315800201A08FC200342442FFFFAFC200348FC20034B4
S315800201B090420000A3C2001824020002AFC20014BB
S315800201C093C300108FC200140043102A1440000704
S315800201D0000000008FC2002C8C4300008FC20014E6
S315800201E0004318048FC2002CAC4300008FC2002843
S315800201F08C420000000218438FC20028AC430000E4
S3158002020027C200188FC400288FC5002C8FC60030E5
S31580020210004038210C00808D0000000003C0E821D8
S315800202208FBF00248FBE002027BD002803E0000870
S315800202300000000027BDFFF8AFBE000403A0F02136
S31580020240AFC40008AFC5000CAFC60010AFC700141C
S315800202508FC200088C4300008FC2000C8C420000C3
S31580020260706218028FC20014904200000062182148
S315800202708FC20010AC43000003C0E8218FBE000489
S3118002028027BD000803E000080000000013
S7058002000078
