S010000053696D706C6549662E73726563FB
S3158002000027BDFFE8AFBE001403A0F021240200033F
S31580020010AFC2000024020002AFC20004AFC00008D3
S315800200208FC2000028420005104000070000000031
S315800200308FC300008FC2000400621021AFC200008D
S3158002004008008016000000008FC300008FC20004E3
S3158002005000621023AFC200008FC300008FC200046B
S3158002006000621021AFC200088FC2000803C0E821D7
S315800200708FBE001427BD001803E0000800000000B0
S7058002000078
