S010000053756D41727261792E73726563E0
S3158002000027BDFFC8AFBE003403A0F021AFC00000F9
S31580020010AFC00004AFC000000800801000000000DE
S315800200208FC200000002108003C210218FC300001D
S31580020030AC4300088FC2000024420001AFC2000018
S315800200408FC200002842000A1440FFF5000000001B
S31580020050AFC0000008008021000000008FC20000AF
S315800200600002108003C210218C4200088FC3000454
S3158002007000621021AFC200048FC200002442000138
S31580020080AFC200008FC200002842000A1440FFF36C
S31580020090000000008FC2000403C0E8218FBE003436
S311800200A027BD003803E0000800000000C5
S7058002000078
